:020000040000fa
:080000000002040000000000f2
:020000040000fa
:04000800fe020000f4
:020000040000fa
:04000c00fe020000f0
:020000040000fa
:04001000fe020000ec
:020000040000fa
:04001400fe020000e8
:020000040000fa
:04001800fe020000e4
:020000040000fa
:04001c00fe020000e0
:020000040000fa
:04002000fe020000dc
:020000040000fa
:04002400fe020000d8
:020000040000fa
:04002800fe020000d4
:020000040000fa
:04002c00fe020000d0
:020000040000fa
:04003000fe020000cc
:020000040000fa
:04003400fe020000c8
:020000040000fa
:04003800fe020000c4
:020000040000fa
:04003c00fe020000c0
:020000040000fa
:04004000fe020000bc
:020000040000fa
:04004400fe020000b8
:020000040000fa
:04004800708a0000ba
:020000040000fa
:04004c00fe020000b0
:020000040000fa
:04005000fe020000ac
:020000040000fa
:04005400fe020000a8
:020000040000fa
:04005800fe020000a4
:020000040000fa
:04005c00fe020000a0
:020000040000fa
:04006000fe0200009c
:020000040000fa
:04006400fe02000098
:020000040000fa
:04006800fe02000094
:020000040000fa
:04006c00fe02000090
:020000040000fa
:04007000fe0200008c
:020000040000fa
:04007400fe02000088
:020000040000fa
:04007800fe02000084
:020000040000fa
:04007c00fe02000080
:020000040000fa
:04008000fe0200007c
:020000040000fa
:04008400fe02000078
:020000040000fa
:040088001e8a0000cc
:020000040000fa
:04008c00fe02000070
:020000040000fa
:04009000fe0200006c
:020000040000fa
:04009400fe02000068
:020000040000fa
:04009800fe02000064
:020000040000fa
:04009c00fe02000060
:020000040000fa
:0400a000fe0200005c
:020000040000fa
:0400a400fe02000058
:020000040000fa
:0400a800fe02000054
:020000040000fa
:0400ac00fe02000050
:020000040000fa
:0400b000fe0200004c
:020000040000fa
:0400b400fe02000048
:020000040000fa
:0400b800fe02000044
:020000040000fa
:0400bc00fe02000040
:020000040000fa
:0400c000fe0200003c
:020000040000fa
:0400c400fe02000038
:020000040000fa
:0400c800fe02000034
:020000040000fa
:0400cc00fe02000030
:020000040000fa
:0400d000fe0200002c
:020000040000fa
:0400d400fe02000028
:020000040000fa
:0400d800fe02000024
:020000040000fa
:0400dc00fe02000020
:020000040000fa
:0400e000fe0200001c
:020000040000fa
:0400e400fe02000018
:020000040000fa
:0400e800fe02000014
:020000040000fa
:0400ec00fe02000010
:020000040000fa
:0400f000fe0200000c
:020000040000fa
:0400f400fe02000008
:020000040000fa
:0400f800fe02000004
:020000040000fa
:0400fc00fe02000000
:020000040000fa
:04010000fe020000fb
:020000040000fa
:04010400fe020000f7
:020000040000fa
:04010800fe020000f3
:020000040000fa
:04010c00fe020000ef
:020000040000fa
:04011000fe020000eb
:020000040000fa
:04011400fe020000e7
:020000040000fa
:04011800fe020000e3
:020000040000fa
:04011c00fe020000df
:020000040000fa
:04012000fe020000db
:020000040000fa
:04012400fe020000d7
:020000040000fa
:04012800fe020000d3
:020000040000fa
:04012c00fe020000cf
:020000040000fa
:04013000fe020000cb
:020000040000fa
:04013400fe020000c7
:020000040000fa
:04013800fe020000c3
:020000040000fa
:04013c00fe020000bf
:020000040000fa
:04014000fe020000bb
:020000040000fa
:04014400fe020000b7
:020000040000fa
:04014800fe020000b3
:020000040000fa
:04014c00fe020000af
:020000040000fa
:04015000fe020000ab
:020000040000fa
:04015400fe020000a7
:020000040000fa
:04015800fe020000a3
:020000040000fa
:04015c00fe0200009f
:020000040000fa
:04016000fe0200009b
:020000040000fa
:04016400fe02000097
:020000040000fa
:04016800fe02000093
:020000040000fa
:04016c00fe0200008f
:020000040000fa
:04017000fe0200008b
:020000040000fa
:04017400fe02000087
:020000040000fa
:04017800fe02000083
:020000040000fa
:04017c00fe0200007f
:020000040000fa
:04018000fe0200007b
:020000040000fa
:04018400fe02000077
:020000040000fa
:04018800fe02000073
:020000040000fa
:04018c00fe0200006f
:020000040000fa
:04019000fe0200006b
:020000040000fa
:04019400fe02000067
:020000040000fa
:04019800fe02000063
:020000040000fa
:04019c00fe0200005f
:020000040000fa
:0401a000fe0200005b
:020000040000fa
:0401a400fe02000057
:020000040000fa
:0401a800fe02000053
:020000040000fa
:0401ac00fe0200004f
:020000040000fa
:0401b000fe0200004b
:020000040000fa
:0401b400fe02000047
:020000040000fa
:0401b800fe02000043
:020000040000fa
:0401bc00fe0200003f
:020000040000fa
:0401c000fe0200003b
:020000040000fa
:0401c400fe02000037
:020000040000fa
:0401c800fe02000033
:020000040000fa
:0401cc00fe0200002f
:020000040000fa
:0401d000fe0200002b
:020000040000fa
:0401d400fe02000027
:020000040000fa
:0401d800fe02000023
:020000040000fa
:0401dc00fe0200001f
:020000040000fa
:0401e000fe0200001b
:020000040000fa
:0401e400fe02000017
:020000040000fa
:0401e800fe02000013
:020000040000fa
:0401ec00fe0200000f
:020000040000fa
:0401f000fe0200000b
:020000040000fa
:0401f400fe02000007
:020000040000fa
:0401f800fe02000003
:020000040000fa
:0401fc00fe020000ff
:020000040000fa
:04020000fe020000fa
:020000040000fa
:04020400fe020000f6
:020000040000fa
:04020800fe020000f2
:020000040000fa
:04020c00fe020000ee
:020000040000fa
:04021000fe020000ea
:020000040000fa
:04021400fe020000e6
:020000040000fa
:04021800fe020000e2
:020000040000fa
:04021c00fe020000de
:020000040000fa
:04022000fe020000da
:020000040000fa
:04022400fe020000d6
:020000040000fa
:04022800fe020000d2
:020000040000fa
:04022c00fe020000ce
:020000040000fa
:04023000fe020000ca
:020000040000fa
:04023400fe020000c6
:020000040000fa
:04023800fe020000c2
:020000040000fa
:04023c00fe020000be
:020000040000fa
:04024000fe020000ba
:020000040000fa
:04024400fe020000b6
:020000040000fa
:04024800fe020000b2
:020000040000fa
:04024c00fe020000ae
:020000040000fa
:04025000fe020000aa
:020000040000fa
:04025400fe020000a6
:020000040000fa
:04025800fe020000a2
:020000040000fa
:04025c00fe0200009e
:020000040000fa
:04026000fe0200009a
:020000040000fa
:04026400fe02000096
:020000040000fa
:100400000f0422000eff27000e01880000000000ec
:10041000000020000000e000020032000001200087
:100420002002880014000700210207000000e000fd
:1004300003003a00a0fb2700010020000200370063
:100440000000200001002000810f70000100320038
:100450000f000700000020000000e0000200320052
:1004600000000200000000001a89020000000000e5
:100470000040da000000fe00a0d423000000e000ed
:1004800002003200a0202000900188000000060039
:10049000a1028800800478000000eb001f003700f4
:1004a000e284440054a0b4009905ba00e2844400f8
:1004b00054a0b4009906ba00e284440054a0b400e9
:1004c0000006eb00476fde00fd07b200ae018800ba
:1004d000636ce10003003a000ad801000000eb0061
:1004e0000e003700606ce10008003a00004deb00a0
:1004f0000a05e800020039003420ec000af0a000f0
:100500008b05e900f9ff3e00040037006168e10057
:10051000010032000086eb000b00070019c7ba008b
:100520001905ba000e04e00003003a000a00e000da
:10053000dbff3a0000000600fe07b200ae028800b2
:100540008a047800f5ff37000cd0a300e20f4d00bd
:100550001c00390089027800354dba000a05e80010
:10056000020039003420ec000af0a0008b05e900fd
:100570000f003200254dba000a05e80002003900dc
:100580003420ec000af0a0008b05e90008003200de
:100590000c00e0000600320015cdba000a05e800a4
:1005a000020039003420ec000af0a0008b05e900bd
:1005b0008984e80054a0b4000b00e000e2ff3a0098
:1005c000000006009902ba00055d78008b05e9007d
:1005d000f7ff3200c82ade00055d78008b05e900d0
:1005e000f3ff32000c00e000f1ff320019ddba0029
:1005f000eeff370044090400000000000040da006c
:100600000000fe003200f80001c0fe004600f800c5
:100610005000f8000220200032028800020028006a
:10062000130020008019dd00028171008202880021
:10063000010078000101780026002000470020001a
:100640008301e90003800800070000000110e100b9
:10065000040034001102be0092087800e2307b00f2
:100660000489be0087804000121978005000f9000c
:100670004600f9003200f90000000600889fbe0025
:100680008a9fbe008c9fbe008e1f78004400f80039
:10069000070f2000270288003200f800811f780031
:1006a0000f07780007f02f000338e1004800320000
:1006b00003d0fe0004018000fd0181000500290037
:1006c00019002000804cdd008904d0000f85440013
:1006d0000800310005055500060031008d844400f6
:1006e000040031008f8444000200310084865400ed
:1006f0003000390019002000804cdd00130020007c
:1007000002047800800678008904d100424edd00a2
:10071000010578000302e9000480080020000000c1
:10072000000000008a0546004218dd000902e900c9
:100730000480080018000000000000004620c300ec
:100740003200f80001c0fe00000000003b02520031
:100750003200f900df35c100080440001381c200f7
:100760003200f80001c0fe0000000000ab82520021
:10077000264dc5003e85c400bb00cd00bb80cd002a
:100780003a00ca002a80ca003200f9000700c900f6
:100790000580c900ba00cd00ba80cd000a05460028
:1007a000020478008301d0008d06e900d6ff3c00ea
:1007b0002f00370019002000804cdd000f04780066
:1007c0008906e9000d800900b21f78000801780051
:1007d00001c0fe0019002000804cdd001300200045
:1007e00002047800800678008904d100424edd00c2
:1007f000010578000302e9000480080018000000e9
:10080000000000008a0546004218dd000902e900e8
:100810000480080010000000000000004620c30013
:100820003b025200df35c100080440001381c200c2
:10083000ab825200264dc5003e85c400bb00cd00f2
:10084000bb80cd003a00ca002a80ca000700c90058
:100850000580c900ba00cd00ba80cd000a05460067
:10086000020478008301d0008d06e900deff3c0021
:100870008e0778004f0078003200f9004400f9003c
:100880004f0778004f06be004f05be004f04be0064
:1008900000000600889fbe008a9fbe008c9fbe009d
:1008a0008e1f78004400f800080f200028028800fe
:1008b0003200f8004600f8004800f8004a00f8004e
:1008c0004c00f8004e00f8008a0a2c003a0288001a
:1008d0002304900058028800130490004802880006
:1008e000530590007a028800430590006a02880050
:1008f000811f78000f0778003305900007f02f0064
:100900000a38e1002b0032000ad0fe00040180000a
:10091000fd01810005002900830490008904d000b6
:100920000f85440008003100050555000600310020
:100930008d844400040031008f84440002003100a3
:100940008486540012003900630590000302900071
:10095000630252000000e900008008000900000066
:100960003200f80001c0fe00320d78003200f900bc
:100970004618c300048009004618c4004218c40089
:100980001201c4003100cd00ea01980019003700bf
:10099000830490008f0378008906e9000d80090028
:1009a000b81f7800070478008f07e9005f0288000d
:1009b0004802880001c0fe00630590000302900019
:1009c000630252000000e9000080080007000000f8
:1009d000320d7800000000004618c30004800900b2
:1009e0004618c4004218c4001201c4003100cd00f2
:1009f000ea0198008e0778004f0078004e00f90059
:100a00004c00f9004a00f9004800f9004600f900de
:100a10003200f9004400f9004f0778004f06be008d
:100a20004f05be004f04be00000006003200f80073
:100a300001c0fe00800090000101e900c0009000ac
:100a40000000200002800900801878003200f900c0
:100a5000000006003200f80001c0fe008102d00054
:100a60008502e90001187800021878000518410095
:100a7000031878000418780005184200040878006c
:100a80003200f90000000600889fbe008a9fbe0069
:100a90008c1f78003200f80001c0fe004400f8000e
:100aa000070f2000270288003305900008f02f0070
:100ab0000a40e10002003200000020003900370047
:100ac0004600f8004800f8004a00f8004c00f80022
:100ad0004e00f8008a0a2c003a0288002304900095
:100ae00058028800130490004802880053059000c3
:100af0007a028800430590006a028800811f78000e
:100b00006305900004067800030290006202520020
:100b10000000e9008503780000800800190000004b
:100b2000320d7800000000004618c3000480090060
:100b30004618c4001201c4003100cd003c80ca0038
:100b400000b0cb000580cd001301c5000500cd002d
:100b50008405e900880478000609c3000b800800ba
:100b6000020000001900ca000609c4003900cd00c7
:100b70001900ca000209c4003900cd001900ca00da
:100b80001201c4003900cd00ea0198004f0078003e
:100b90004e00f9004c00f9004a00f9004800f90045
:100ba0004600f9004400f9003200f9004f067800d1
:100bb0004f05be004f04be00000006003200f800e2
:100bc00001c0fe00810178000000e90000800900fa
:100bd000b2187800030078003200f9000000060027
:100be0003200f80001c0fe00b10278000009eb00fd
:100bf0000002e90007003400b10178000328e10099
:100c000002003c0083027800040950000402e9005d
:100c1000f9ff3c00050078003200f90000000600f2
:100c20003200f80001c0fe004400f800040f20006c
:100c300024028800811f78000000e900008008007d
:100c40000300000032027800b30278001301c000f4
:100c50003100cd004f0078004400f9003200f90067
:100c6000000006003200f80001c0fe004400f80059
:100c7000040f200024028800010278000000e9002f
:100c80000080080005000000b20278000500ca00dc
:100c9000b30278000580ca000030cb003100cc00e0
:100ca000040078004400f9003200f900000006005a
:100cb0000000050003f0a200889fbe008a9fbe00ce
:100cc0008c1f7800d5000700dc0033006450e10081
:100cd0004f0032006420e1005200320003826c00b9
:100ce00007003b000905d0000306d000820f540026
:100cf0000c065d0002003900020032008901780014
:100d0000030678008582550004003d000003fd00c5
:100d10008103fd008502ea008b854200840f72008a
:100d200002003b0060001000e08018006011b80075
:100d30000005eb007a28e1000a003900060078007f
:100d4000c75ddd00f707b200878075002d00370012
:100d5000828171000a017800610560008180d10004
:100d60000080d3008502e900f9ff3b000604400043
:100d70008784480002003b0060041400e0841c00eb
:100d80000988a300070032008a8171008281710006
:100d9000610164008904d1000884d3008b05e80058
:100da000170037000978a30013003a000b00e00099
:100db000130034008b05e9000804440089844c00ca
:100dc0000a4474000978a3000d003a000b00e0000b
:100dd000070034008b05e9000804440089844c00b6
:100de00001003a000b0020000978a300f7ff320051
:100df0000001eb0002003700828171000a017800d7
:100e00004b0007000cf0a70001f0a0009400370091
:100e10006420e10002003a00838f6c0094003300ec
:100e20000801be000200be008d0037000001be00b8
:100e3000650007000470a70003f0a1006509b10078
:100e4000160032000d0035006828e100060035006c
:100e5000f0ff2f00f1ff27000300e00013003b002c
:100e600001002800000005000000400081804800cb
:100e70008502e900fcff3a0008003700f88f4200c5
:100e800002003c008000eb00000005008100d10062
:100e90000080d3008502e800fcff3a000300e00078
:100ea00002003b0060001000e08018000000060017
:100eb0000001be00440007000470a70003f0a10079
:100ec00003f8a30013003a006509b10010003200d6
:100ed000090035006928e100020035000100280002
:100ee0000000050000004000818048008502e90004
:100ef000fcff3a0000000600f88f420005003500b4
:100f00008100d1000080d3008502e800fcff3a0098
:100f1000000006008000eb00000005004f89de00a5
:100f200082017800990037006011b800a7003700ef
:100f300081002000618055000b003d000b00200067
:100f400061fe2f000100e1001d003400828171006c
:100f5000610164008904d1000884d3000000e80026
:100f6000faff3a0071002000610064000300700085
:100f7000020060000900320061044400e0844c007b
:100f80000988a500050032008b05e8006808e1002b
:100f900002003a008904d1000884d300f20f200037
:100fa0000258e10005003d00c75ddd00f907b20011
:100fb0008980750008007800000006000bf8270003
:100fc0008b00780000000500c70ade00f107b200c0
:100fd000f50fb20008003200e1cf420002003200fb
:100fe0000170a00024000500810f70000100320094
:100ff0000408050044000500810f700002003a005b
:10100000140005008502e9000000400081c048008e
:10101000fcff3b000170a000240005000004be009e
:10102000e9ff07000003be000405be000200be0089
:10103000e5ff0700844f7500000006000200be00b7
:101040006450e100050036006420e1000200360033
:101050000968a30001003a000800be000160a0007a
:101060004f0678004f05be004f04be00000006008a
:10107000f0ff2f00f1ff2700f9ff3700889fbe0027
:101080008a9fbe008c1f7800e4ff0700ebff33004f
:1010900003866c006450e100240032006420e1000b
:1010a000270032006150e100220032006120e1009f
:1010b000210032008b854200eb07b1000134b800fb
:1010c000003ab8000804420089844a00013ab80096
:1010d0000030b8008880400009014a000400330055
:1010e0000000400081804800020149008b05e900b2
:1010f000c909dd00830170000100320013002000e7
:10110000c814de004814dd004709de001200b200fa
:10111000c808de000884700085ff070001f0a10008
:101120000cf0a70001f0a000cdff37006120e10026
:10113000cfff32000801be000200be00f7ff3700fb
:101140006150e100fcff3a00c9ff37006022b8009f
:10115000060220000000d0008180d2000482d2006c
:101160008582d2000000a0000202520083825a0051
:10117000030031000202420083824a000000a10005
:101180000603e900f3ff3a0000000600881f78001c
:10119000030478000300e00007003d006000100039
:1011a000e080180060011900e081190002003b0096
:1011b00001f02d00030037000400070008f0a7002d
:1011c00001f0a0004f04780000000600889fbe00d8
:1011d0008a9fbe00008270000402710004827100c8
:1011e000260032000004be000200be006011b800fc
:1011f0006b092000950220000182cf000a0039000f
:101200000541b1000082cf00070039000541b1005f
:101210000982cf00040039000541b1000882cf00e7
:10122000010039000541b1000542520012003200b0
:101230000a003b0082817100610164008100d100dd
:101240000080d3008984d3000884d3008b05e80094
:101250000442e800f7ff3a000700370008044400a2
:1012600089844c0000004800818048008b05e9001b
:101270000442e900f9ff3a002dff07004f05be00c8
:101280004f04be0000000600881f780002047800aa
:1012900008017800d2010700080040004f047800e0
:1012a000000006000000fa00881f780000047800a3
:1012b000ea8157003fb997008800780040942000e9
:1012c000070007000000e0000200350000044400b1
:1012d000004ceb004f0478000080fa00000006008c
:1012e0006200fa00889fbe008a1f7800000578001f
:1012f00081047800020478008300780080f92f00d0
:101300000f004000bc0307009a979f00a9979f0019
:101310000000eb00b09f9f001885fb008a04fb00d3
:101320000a05ea004f55de0050022000808f54006d
:101330000d003200e10f55000b003a000a01780061
:10134000880078002f9097009f919700030001007c
:10135000a0979f000000e0008e0032003f989700a9
:101360000000e800b09f9f000a04440050022000e3
:10137000808f5400040032000900e000e6ff3a00cc
:101380003f989700840037000000eb00909f9f007b
:10139000809f9f00f0979f00e0979f00d0979f004d
:1013a000c0979f0007003700e101220001005000b4
:1013b0000000400021012200808040005f989700db
:1013c00011007000d09f9f00880478000904780005
:1013d000384578008a00fb00e00122008701070001
:1013e0000000e000f0ff3a00a1c2b300814f5500b9
:1013f0000e003a00cf8897000180e900c08f9f005f
:1014000010007800c09f9f000000e00005003d0034
:101410000000ea00c09f9f005f9897000020a00096
:10142000d09f9f000904e8000f003700c09f9f0075
:101430000000eb0005003700f2ff2700820f50008c
:1014400002003200ea00b900008040000904780080
:1014500088047800b900fb000103b100e98f500057
:10146000f5ff3600c09f9f00e0c2b300984f100008
:10147000020032000080eb0019003700a0c2b30068
:10148000d84f100007003a00cf8897000180e9008c
:10149000c08f9f0010007800a09f9f000804e80004
:1014a000100037000000eb00a09f9f00880078002c
:1014b00005003700f3ff2700830f500002003200c1
:1014c000ea00b900000041000104780088007800bb
:1014d0003101fb000203b100e90f5100f5ff3600b6
:1014e000a09f9f00984478008900fb00a000220084
:1014f000420107000000e000020032000804e8009a
:10150000010037008044eb00c97f9f0080c6b30014
:1015100080cf540004003a0098cf14000a003a002b
:101520006640500006003700c0c6b30080cf5400ac
:1015300005003a0098cf140003003a0065404000cf
:10154000c07f9f000804e8001801fb00e3fb2f00a8
:101550008f81410081f92f008f804000a0f92f007a
:101560000f004000100007000000e00009003a00f2
:10157000e1fb2f008f804000a0f92f000f004000fa
:10158000610207000000e000020035000804e800e6
:1015900061ff37000080eb004f0578004f04be006c
:1015a0000080fa0000000600881f7800e4c6b3003f
:1015b000844f5100bc00320010003c006b425200ce
:1015c000844f51001800320005003c0054c2b300a3
:1015d000844f5100f400320084c5b3000f0037007f
:1015e00044c6b300844f51001500320065424200ea
:1015f000844f5100ef003a001100370004c7b300d8
:10160000844f5100db003200570035006542420034
:10161000844f51005400320063424200844f510015
:10162000e4003a00500037001181e9008208780098
:10163000f00090008181410092497800e30037007a
:1016400020629000c5c6b300854f520007003a00e3
:101650009102780064825200840878001402be006f
:101660004fabde00860378001100370015c7b300ca
:10167000854f520003003200a5c6b300854f5200cb
:1016800006003a00910278006882520084087800cf
:101690005403be004402be00050037001182e90079
:1016a0008408780014027800cfa2de00612bb90014
:1016b0000498be000690be00a060900088c6b300eb
:1016c00088cf50000d00320028c6b30088cf5000ec
:1016d00004003a000402fb00cfa2de00612bb90037
:1016e0000800370048c7b30088cf5000030032001d
:1016f0006644440088cf500004003a00cfa2de00c8
:10170000612bb9000498be000690be003002be00f6
:101710002003be00f0009000e00f5200e08f5a005e
:10172000e00f5b00e08f5b0003003d0001824100a1
:10173000d5c2b3000a003700001290000418a300bd
:101740000300320001824100b5c2b300040037003b
:101750000408a3004f0032000182410005c2b3001b
:10176000054a78004900370020629000c5c6b300e2
:10177000854f520006003a009102780064825200c0
:10178000840878001402be006033b80011003700ee
:1017900015c7b300854f520003003200a5c6b30041
:1017a000854f520006003a0091027800688252008c
:1017b000840878005403be004402be0005003700d0
:1017c0001182e90084087800140278008002eb009e
:1017d0006033b8000498be000690be00a060900080
:1017e00088c6b30088cf50000d00320028c6b30071
:1017f00088cf500004003a000482fb008002eb0016
:101800006033b8000800370048c7b30088cf5000e5
:10181000030032006644440088cf500004003a00c0
:101820008002eb006033b8000498be000690be0052
:10183000801090000138a300160032003002be0074
:101840002003be00e00f5200e08f5a00e00f5b0063
:10185000e08f5b000f00320081c7b300814f510061
:101860000300320081c5b300814f510009003a00e6
:10187000f00090000182410005c3b300054a7800e2
:101880008100e80001824100024a78008100e800fe
:1018900071009800f0009000818141006300980081
:1018a000824078003e003700a0619000c4c6b300bb
:1018b0001181e90084cf5100220032000a003c006f
:1018c0006442520084cf51002500320004c2e80077
:1018d00084cf5100130032006842520084cf51007f
:1018e0001e003a000a00370044c7b30084cf5100fd
:1018f0001b0032006642420084cf510018003200c3
:101900006942520084cf510014003a0005003700ac
:101910008208780092007800405890008048780053
:101920002c0037008208780092007800600a90004e
:10193000cfa2de00612bb9008498be008690be0065
:101940002400370082087800920078006009900037
:10195000cf91de008288be001e0037001181e900b1
:101960008208780092007800600890008008780073
:10197000180037001181e90082087800120278000f
:10198000cfa2de00612bb9000498be000690be0015
:10199000f0009000818141006300980081c7b3008e
:1019a000220007000b003700f00090008181410009
:1019b00005003700f0009000818141000204e00042
:1019c00001003a0052c2b300824978008100e80069
:1019d000710098000000eb004f0478000000060042
:1019e0008001780002003700b15978000201e90057
:1019f0000200e000fcff3a00000006000200370091
:101a00000304e000060032000001780002007800c4
:101a1000b041780081cf5100f9ff3a000100370052
:101a20000001eb000200780000000600fc87470080
:101a3000889fbe008a9fbe008c9fbe008e1f7800cc
:101a40000006780080c5b30080cf50000a00320045
:101a50007740400080cf50000a00320069404000cb
:101a600080cf50000b00320090ff210080bf9f000c
:101a7000ae0020000a00370082fe210082bf9f00d6
:101a80000600370093ff210083bf9f008e002000d7
:101a90000300370094ff210084bf9f000e01200047
:101aa0003c02be002c03be000605be000404be00be
:101ab00040c6b30080cf50000300320065404000b4
:101ac00080cf50000b003a00e00f5200e08f5a0028
:101ad000e00f5b00e08f5b0006003d006000b80097
:101ae0006011b800040450008584580006055900b0
:101af00087855900e80f570004003200400020009d
:101b0000f00f57003a003a00010037003000200083
:101b1000e00f5400e08f5c00e00f5d00e08f5d009f
:101b200004003a00dc0890008d0120000100e00074
:101b3000070032008e00e900888060008fba9700ad
:101b40008180420091407800f1ef9f007d012000ec
:101b5000800078008100e900050033008b05d1008a
:101b60000a85d3008984d3000884d300f9ff3700a5
:101b7000089ebe000a96be00130037008d06e900dd
:101b80008e00e900848060000fb997008100410059
:101b90001141780083fd2f008d81410082f779008b
:101ba000800178008301e900050033008783d100bc
:101bb0000683d3008582d3000482d300f9ff370067
:101bc000049ebe000696be003c02be002c03be0072
:101bd000e00f5200e08f5a00e00f5b00e08f5b00e7
:101be000910034000d00e000e4ff3c008e0037005f
:101bf0002c60900081c6b300814f50000b00320072
:101c000006003c000004e00008003200e6c050007e
:101c1000814f500052003a0004003700c1c6b300a3
:101c2000814f50004e003a00230037000800e000ca
:101c300004003a005c0890008d0120000000e000e4
:101c400007003200110009000e84d8000fba970077
:101c50000100420010407800f0ef9f007d0120005d
:101c6000110009000e84d8000b0037001100090094
:101c70000e04d8008d06e9008e81b90002045400dc
:101c80008fb89700088440009841780082fd2f00ab
:101c90000d01410083777900000478000800e0001e
:101ca000020032000d00e000f0ff3c00cfc4de0077
:101cb000614db90027003700e00f5400e08f5c0051
:101cc00004003a005c0890008d0120000000e00054
:101cd000080032006171b9000800be00570107001a
:101ce0000fba97008000420091407800f1ef9f000a
:101cf0007d0120006171b9000800be0013fd0700de
:101d00000c0037006171b9000800be003c010700fb
:101d10008d06e90080f1b900020454008fba9700e3
:101d2000088442009841780082fd2f000d01410097
:101d3000837779000004be00e00f5000e08f580068
:101d4000020032000d00e000eeff3c004fcdde004f
:101d50008a057800089ebe000a96be003200370051
:101d6000e00f5400e08f5c00e00f5d00e08f5d004d
:101d700004003a005c0890008d0120000000e000a3
:101d80000a0032006172b900612bb9000800be0080
:101d90000a01be00cc0107000fba97008000420084
:101da00091407800f1ef9f007d0120006172b90041
:101db000612bb9000800be000a01be00bb0107008c
:101dc0000e0037006172b900612bb9000800be0037
:101dd0000a01be00c00107008d06e90080f2b900cb
:101de000040454008fba9700088442009842780097
:101df00084fd2f000d02420085777a00009ebe0010
:101e00000296be003c04be002c05be00e00f54004c
:101e1000e08f5c00e00f5d00e08f5d0002003400a9
:101e20000d00e000e7ff3c00e80f570010003a000b
:101e30000c1090000038a3000d003200f78f560000
:101e400006003e0080fd2f000d004000ef407800ae
:101e500000c3b30080cf50000500320002c3b300be
:101e600071fd2f008d8040008d06e90082f778001b
:101e700078811600120e98006c00900083fd2f00f0
:101e80008f8141008d804100d5fe07001c08900025
:101e9000dc089000810f500006003d0000805000db
:101ea000000e98000c1090000040a1000016980051
:101eb0000f0037000100e0000d003d008c10900085
:101ec000f4806000f08f500009003a007c09900017
:101ed000fc009000810051000c09900082805000ad
:101ee000008050004240a90001003400000e98001c
:101ef0004f0778004f06be004f05be004f04be00de
:101f0000cf01b100000006000400fa00889fbe0067
:101f10008a9fbe008c1f78000004780001067800bc
:101f2000f80d90007800900080855500080890001a
:101f3000808555001808900080855500280890007d
:101f4000808555003808900080855500480890002d
:101f5000808555000002220090bf9f0000032300ef
:101f6000a0bf9f00081090000028a30015003a00b1
:101f70000b00e000130034000b0578008a047800a1
:101f8000e20f55000100360029002000c801900032
:101f900009017800ee80570058009000030001000e
:101fa000500498000000e0008c00320068089000a7
:101fb00009004000600c9800090555004240a90046
:101fc000eeff3c00780190000200e0000c003400bd
:101fd000c80190008c0078005800900003000100b8
:101fe000500498008080eb000000e0007c0032008c
:101ff000e80890007800900000804000600c980095
:10200000880c90000900e0001100340009057800f8
:10201000e28f5400010036002a002000c801900021
:102020000a017800ec80570058009000030001007e
:10203000500498000000e00068003200680890003a
:102040000a004000600c98008a845400edff3700bd
:10205000180990000200e0000c003400c801900054
:10206000e800900058009000030001005004980020
:102070008080eb000000e00059003200e80890008a
:102080001808900000804000600c9800a80c900098
:102090000900e0001100340009057800e28f5400c7
:1020a000010036002a002000c80190000a017800d3
:1020b000ec80570058009000030001005004980085
:1020c0000000e00045003200680890000a0040006f
:1020d000600c98008a845400edff370038099000a6
:1020e0000200e0000e003400e800900018089000a4
:1020f00080804000c801900058009000030001005b
:10210000500498008080eb000000e00034003200b2
:10211000e80890003808900000804000600c9800ab
:10212000c80c90000900e000110034000905780097
:10213000e28f5400010036002a002000c801900000
:102140000a017800ec80570058009000030001005d
:10215000500498000000e000200032006808900061
:102160000a004000600c98008a845400edff37009c
:10217000081090008000eb000028a3001800320037
:102180000b00e000160034008b047800090578008d
:10219000e28f5400010036002a002000c8019000a0
:1021a0000a017800ee8057005800900003000100fb
:1021b000500498000000e000080032006808900019
:1021c0000a004000600c98008a8454004240a90034
:1021d000eeff3c008000eb00010037008080eb0048
:1021e000010078004f0678004f05be004f04be0086
:1021f0000080fa00000006000108780000000600d8
:10220000839f68000100e00002003d0060001000b4
:10221000e08018000300e00002003d0060011100b2
:10222000e0811900c9fb07004f00e00002003b00fd
:1022300060001000e080180000000600c3fb0700eb
:102240000400be0000000600889fbe008a9fbe00fa
:1022500030044200b0844a0030054b0090854b00aa
:102260006000b1000898be000a90be000440e10082
:1022700005c8e10006d0e10007d8e1000200310006
:10228000680040001008e8004f05be004f04be0083
:1022900000000600889fbe008a9fbe003004be007a
:1022a0002005be000418540005985c0006185d0067
:1022b00007985d00110020000440e10005c8e1001e
:1022c00006d0e10007d8e100010039008000eb00f2
:1022d000108810004f05be004f04be00000006002d
:1022e0001200fa00889fbe008a9fbe008c9fbe002d
:1022f000e0b79f00f1b79f0082bf9f0093bf9f0090
:102300000605be000404be000000eb00d0b79f002d
:10231000c0b79f00b0b79f00a0b79f0090b79f00c5
:102320000006eb005fb19700cfb09700820141003b
:102330003fb097000200e00004003d0037000700b6
:102340007e805700c0ff07000300370033000700fe
:102350007e805700cfff0700dfb697000d00e0003a
:102360000c0035006fb29700ffb297000fbb9700cb
:102370009fbb970010002000010020006011b800f2
:102380000002720081827200020373008383730073
:102390001b0007000c06e80001042000810f560016
:1023a000e0ff3a000d00e00004003d000802be001e
:1023b0000a03be007e805700a3ff07005fa89700b6
:1023c0000000e00005003a001fb29700afb297008e
:1023d0003fb39700cfb39700090007006fb0970095
:1023e000ffb097000fb997009fb997004f06be0046
:1023f0004f05be004f04be000080fa00000006003a
:102400000100070000000600a4b79f00b5b79f00b9
:10241000c6b79f00d7b79f00000006004f09de0037
:1024200082817100b3b79f004f01de0081804000c0
:1024300082807000a1b79f008fb097004f09de0027
:10244000000040000200700090b79f007fa8970036
:102450004f01de00818040008280700081b79f00c4
:102460000d0007004f3ade0000004000040070003d
:10247000f0af9f00080007000402420085824a0076
:1024800006034b0087834b00dfff07000802be00f6
:102490000a03be00000006002fb29700bfb29700eb
:1024a0004fb39700dfb3970000000600881f780045
:1024b00018002000881f780089ff07008f87e90037
:1024c0004f04780000000600801feb0084ff070027
:1024d0008f87e90000000600889fbe008a9fbe002b
:1024e000e00f5000e08f5800e00f5900e08f5900d6
:1024f0000c003d006044b8006055b8000000540076
:1025000081805c0002015d0083815d001800200075
:102510001500070008003d00180007000004eb004c
:10252000050037000004eb000f00070002003d002b
:102530001200070018002000dcff07000800e00080
:10254000060032006022b8006033b800000052007c
:1025500081805a0002015b0083815b004f05be0051
:102560004f04be0000000600e00f5200e08f5a004a
:10257000e00f5b00e08f5b00000006006044b800e5
:102580006055b8000402540085825c0006035d00bb
:1025900087835d0000000600889fbe008a9fbe0002
:1025a0008c1f7800e00f5000e08f5800e00f5900ba
:1025b000e08f59000d003d006044b8006055b80040
:1025c0000000540081805c0002015d0083815d0099
:1025d0001c0020000820e10009a8e1000ab0e10089
:1025e0000bb8e1000d003d00080037000006eb00cd
:1025f000e00f5200e08f5a00e00f5b00e08f5b00bd
:1026000006003d006044b8006055b8000402540064
:1026100085825c0006035d0087835d00aaff0700da
:102620000c00e000060032006022b8006033b80001
:102630000000520081805a0002015b0083815b0030
:102640004f0678004f05be004f04be000000060094
:020000040000fa
:102650001401fa00889fbe008a1f7800100f9900ad
:10266000a0018100e10f50000b003200e20f50008a
:10267000100032000000e00015003a0003e32100e2
:102680001e0991009e08910000082000100602001b
:10269000000000000e00370003c321001e09910056
:1026a0009e089100000820001006020000000000b3
:1026b0000700370003d321001e0991009e089100f6
:1026c00000082000100602000000000000000000ca
:1026d0000040eb00004f7800120037001e81fb0025
:1026e0001e80fb00000040009e089100008040001a
:1026f000100078008080d1004211dd0000402d00e4
:1027000000004100010878001e80fb00c200dd00cf
:1027100020402d00008040008000eb000108780080
:102720001e4fe8001e4078000004e000ebff3d0073
:10273000a02020008000780000452d008101780055
:102740000001780001402d00700020003e030200cf
:102750000000000001402d00700020000203020074
:1027600000000000900180003082880010002000ee
:10277000900188000040eb00004f780042003700d5
:102780001e80fb00c200dd0000402d0000804000e4
:1027900010007800cf80de00100798002107980015
:1027a0001e80fb004200dd008080e80000402d001c
:1027b0000080400010007800cf80de0030079800d5
:1027c00041079800ae0090001e0090008089b9007b
:1027d000ae0090001e0090008088b900000141000a
:1027e0009e0090001e0090000008b800010141000a
:1027f0008200780050079800610798005007980001
:1028000061079800ce0090003e0090008089b900da
:10281000ce0090003e0090008088b9000001410089
:10282000be0090003e0090000008b8000101410089
:102830008200780070079800010f980070079800d8
:10284000010f98005e019000ee0190007e00900064
:102850008e089000020040008380480050079800d6
:10286000610798001e84fb005e009000ee0090005f
:102870000601070080007800080044007200400054
:10288000013778001e4fe800f0c3b3009e40780087
:1028900080cf5000baff360030828000900188005f
:1028a0000040eb00004f780052003700b00181007b
:1028b0000000e0002a003a001e80fb0000004000fb
:1028c00072004000ee0078001e80fb000001400016
:1028d00000f321000000410010007800808f5000bc
:1028e0000a0034001e80fb009e80fb0081804000b7
:1028f000f2804000ee8078000001400000f32100eb
:102900000000410001087800390037001e84fb00f8
:102910001e80fb008000400000f32100008040008a
:1029200010007800cf80de008e070200000000005b
:10293000c2ca2100a3f523003e08020000000000e7
:102940001607020000000000800078000801440023
:1029500000f3210000004100010878002400370046
:102960001e85fb001e80fb008000400000f321005c
:102970000080400010007800cf80de008e0702004b
:1029800000000000c2ca2100a3f523003e08020097
:10299000000000000004be001e80fb00000040009c
:1029a000720040006e007800cf80de008e070200cb
:1029b0000000000002d5280073e123003e08020059
:1029c000000000000001be000800be005c0602001e
:1029d00000000000160702000000000080007800e0
:1029e0000a01450000f321000000410001087800c1
:1029f0001e4fe800f0c3b3009e40780080cf500027
:102a0000aaff36004f0578004f04be000080fa0090
:102a1000000006001000fa00e800470022642d00c4
:102a200007000900b25878000040eb0020479800ea
:102a300050c0b300304798000040eb0010479800aa
:102a4000110037002e4090000080fb00ac7c02009b
:102a5000000000003e4090000080fb00e27c02008d
:102a60000000000000c0eb00027d0200000000003a
:102a70003e4090000040e900304798001e40900022
:102a80000040e800104798001e409000e24f5000c0
:102a9000ecff36002e4090000040e80020479800f0
:102aa0000040eb00004f78003d0037001e80fb0027
:102ab0008000400000f321000080400010007800fa
:102ac000560007003007980050c0b3003047980008
:102ad0000040eb00104798002a0037002e4090007d
:102ae0000080fb00ac7c0200000000003e40900033
:102af0000080fb00e27c0200000000003e0090002d
:102b0000e70f50000300360000c0eb00404798007c
:102b1000040037003e00900068004000ee4078005e
:102b2000414798001e409000e24f500003003a00d9
:102b30004e4090000004a000404798004e40900096
:102b4000027d0200000000003e009000e70f5000f0
:102b5000040036003e0090006800500030079800e6
:102b6000020037000000eb00300798003e40900064
:102b70000040e900304798001e4090000040e80007
:102b8000104798001e409000e24f5000d3ff3600df
:102b90002e4090000040e800204798001e4fe800bb
:102ba000f0c3b3009e40780080cf5000bfff3600d6
:102bb00050c0b300304798000040eb001047980029
:102bc000110037002e4090000080fb00ac7c02001a
:102bd000000000003e4090000080fb00e27c02000c
:102be0000000000000c0eb00027d020000000000b9
:102bf0003e4090000040e900304798001e409000a1
:102c00000040e800104798001e409000e24f50003e
:102c1000ecff36000080fa00000006000400fa0015
:102c200010079800f0002000000f78000700370020
:102c30001e0090000000e000080035001e0090001b
:102c400000004000100798001e0fe9001e007800e9
:102c50000000e000f6ff3a0001003700000000002d
:102c60001e00780000004000000f78009e009000d9
:102c700040502b00808f5000010036001e0fe800ee
:102c80001e0078000080fa00000006001000fa0024
:102c900060079800710798006e009000fe00900099
:102ca000e00f5000e08f580004003a006000b800c8
:102cb000400798005107980037003700f0012000c6
:102cc000000f78006e019000fe019000220798002e
:102cd000330798000c0037002e009000be009000d3
:102ce000e00f5000e08f58000b0035002e009000e0
:102cf000be0090000000400081804800200798003e
:102d0000310798001e0fe9001e0078000000e00067
:102d1000f1ff3a0001003700000000001e007800bb
:102d20000000d100110020000008dd008000eb0051
:102d300040079800510798000000eb00100798002a
:102d4000120037004e019000de0190006e009000ee
:102d5000fe009000a6080200000000000001be0076
:102d60004e009000de00900002004000838048008a
:102d70008100d1000080d3004007980051079800df
:102d80001e0090000000e800100798001e00900050
:102d9000e40f5000ebff36004e0090000080fa0078
:042da0000000060029
:020000040000fa
:102da4000800fa00404798003107980040c3b30078
:102db400004f78004e409000004040008040780072
:102dc4003e0090004800de00004078006140600052
:102dd40000c07000104798003e009000004078004a
:102de40020479800310020000e007800d08b0200ac
:102df400000000000080fa00000006000200fa0053
:102e04007200070000c02800a1002000e257020061
:102e1400050000000000eb00000f780009003700f7
:102e24001e00780080004000e0622d000080400019
:102e3400900078001e00780000407800d8ff07005a
:102e44001e0fe8001e007800e90f5000f4ff340064
:102e54000000eb00160007000080fa0000000600e6
:102e64000200fa00004f78001e4078000004e000e1
:102e740007003200010820000040eb00c8ff0700f3
:102e84000108200010c0b300c5ff0700060037008a
:102e9400b10120000040eb00c1ff0700b101200098
:102ea40010c0b300beff07000080fa000000060057
:102eb4000200fa00000f78001e0078000000e00015
:102ec40004003a002101200040c0b300b4ff070011
:102ed400040037005101200040c0b300b0ff0700d8
:102ee400000000000080fa00000006000400fa0060
:102ef400204798002e4090000004e00002003200b9
:102f0400500120000100370040012000000f78002c
:102f14009e00780040c0b300a1ff07000080fa00c3
:102f2400000006000200fa00004f78001e407800fe
:102f3400ff4f500002003600f0c1b300004f78008c
:102f44001e80fb007f0060000080a00080007800ed
:102f54000040eb0092ff07001e80fb007f00600032
:102f64000080a0008000780010c0b3008cff070030
:102f74000080fa00000006000200fa00004f78000a
:102f840001c3b3001ecf40001e4078000004e000df
:102f940002003d00f0c7b300004f78001e80fb0024
:102fa4000080a0008000780020c0b3007cff0700f0
:102fb4001e80fb000080a0008000780030c0b300b9
:102fc40077ff07000080fa00000006000000fa0006
:102fd4008000eb00f0c0b30071ff07000080fa002e
:042fe40000000600e3
:020000040000fa
:082fe800f00189000000060061
:020000040000fa
:10d000000400fa000000eb00000f78000000eb00c5
:10d01000100798001e00780037000700280037002e
:10d0200040c080000000e0000a0032000000eb0079
:10d0300040c088001e0fe8001e007800e30f50007b
:10d04000020034000000eb00000f78001e007800a2
:10d050002900070070c080000000e0000a003200d4
:10d060000000eb0070c088001e0fe9001e00780071
:10d070000000e00002003d0030002000000f7800ba
:10d080001e0078001c000700a0c080000000e00027
:10d09000050032000000eb00a0c088001e007800f0
:10d0a00017010700100798001e007800e10f5000dc
:10d0b00003003a006100200020002000a6030700c2
:10d0c0001e0090000000e000d5ff32001e0090001e
:10d0d000e20f500003003a0020032200b28d02004c
:10d0e0000000000020032200848d020000000000e8
:10d0f0000080fa00000006000a00fa0040079800cd
:10d10000467d0200000000000040eb00004f780068
:10d110001d0037001e80fb00e27c020000000000c2
:10d12000d0052000ac7c020000000000d0c5b30098
:10d13000104798000f0037009e80fb001e409000b3
:10d140000080fb00d005b100e909b9008200780039
:10d150000080400031172d00008040001040780012
:10d16000027d0200000000001e4090000040e80028
:10d17000104798009e40900050c6b30080cf5000ea
:10d18000edff36001e4fe8001e407800e74f5000cc
:10d19000e0ff36004e009000e10f500048003200e2
:10d1a000e10f500003003c000000e00006003200e8
:10d1b000d1003700e20f50008d003200e30f500025
:10d1c00075003200cc003700710020000000eb0039
:10d1d000ae7d020000000000b0242d00507f020050
:10d1e00000000000710120000000eb00ae7d020095
:10d1f00000000000b0252d008c7e02000000000021
:10d200007101200000032000ae7d0200000000003c
:10d210009001810080004000400222000080400018
:10d22000100078008c7e02000000000071022000d7
:10d230000000eb00ae7d02000000000030262d0053
:10d240008c7e02000000000071022000000320001c
:10d25000ae7d020000000000a001810080004000bf
:10d260008002220000804000100078008c7e0200c6
:10d2700000000000710320000000eb00ae7d020002
:10d2800000000000a0262d008c7e0200000000009f
:10d290007103200000032000ae7d020000000000aa
:10d2a000b001810080004000e002220000804000c8
:10d2b000100078008c7e0200000000008e00370015
:10d2c000710020000000eb00ae7d020000000000b5
:10d2d00010272d00507f0200000000007101200087
:10d2e0000000eb00ae7d02000000000010282d00c1
:10d2f0008c7e020000000000f10120000000eb0025
:10d30000ae7d02000000000030282d008c7e02005f
:10d3100000000000f10220000000eb00ae7d0200e2
:10d320000000000050282d008c7e0200000000004c
:10d330000e80e8009a020700f1022000000320009e
:10d34000ae7d0200000000000e80e8008c7e02002e
:10d3500000000000f10320000000eb00ae7d0200a1
:10d360000000000050292d008c7e0200000000000b
:10d370000e80e800c8020700f1032000000320002f
:10d38000ae7d0200000000000e80e8008c7e0200ee
:10d390000000000058003700710020000000eb0082
:10d3a000ae7d020000000000502a2d00507f0200d8
:10d3b00000000000710120000000eb00ae7d0200c3
:10d3c00000000000502b2d008c7e020000000000a9
:10d3d000710220000000eb00ae7d020000000000a2
:10d3e000c02b2d008c7e02000000000042003700a0
:10d3f000710020000000eb00ae7d02000000000084
:10d40000102c2d00507f0200000000007101200050
:10d410000000eb00ae7d020000000000102d2d008a
:10d420008c7e020000000000f10120000000eb00f3
:10d43000ae7d020000000000b02d2d008c7e0200a9
:10d4400000000000710220000000eb00ae7d020031
:10d4500000000000602e2d008c7e02000000000005
:10d460001c00370030808000610060000000e00098
:10d47000180032000610a900e1018100008180003f
:10d4800000804000e00189002030ef00e0018100d1
:10d490000000e00002003d000000eb00e001890018
:10d4a000e1018100f0032000808f50000200340071
:10d4b000f0032000e001890010c8b300247d0200c1
:10d4c00000000000e001810000407800247d02009f
:10d4d0000000000040c080000000e00003003a00af
:10d4e00070c080000000e000deff32000000eb00b2
:10d4f000a0c08800000000000080fa0000000600c4
:10d500000c00fa00500798000000eb00100798008c
:10d510000040eb00004f78002d0037001e80fb001c
:10d52000e27c020000000000d0052000ac7c02007c
:10d5300000000000d0c5b300104798001f0037005e
:10d540005e009000e30f50000d003a009e80fb004b
:10d550001e4090000080fb00d005b100e909b90031
:10d56000820078000080400031202d0000804000c3
:10d5700010407800027d0200000000000c0037001f
:10d580009e80fb001e4090000080fb00d005b10093
:10d59000e909b9008200780000804000b11b2d002d
:10d5a0000080400010407800027d02000000000072
:10d5b0001e4090000040e800104798009e409000f8
:10d5c00050c6b30080cf5000ddff36001e4fe8008c
:10d5d0001e407800e74f5000d0ff36005e009000fc
:10d5e000e10f5000ef003200e10f500003003c005b
:10d5f0000000e00006003200c3013700e20f5000d7
:10d60000c0013200e30f500081013200be0137003b
:10d610007101200000032000ae7d02000000000028
:10d620009001810080004000400222000080400004
:10d6300010007800507f020000000000300037002a
:10d6400040c080000000e000150032000000eb0048
:10d6500040c08800900181000000e800900189002e
:10d6600090018100e10f5000020034000000eb0047
:10d67000900189007101200000032000ae7d0200ae
:10d680000000000090018100800040004002220064
:10d690000080400010007800507f02000000000071
:10d6a00070c080000000e000150032000000eb00b8
:10d6b00070c08800900181000000e900900189009d
:10d6c000900181000000e00002003d0010002000f9
:10d6d000900189007101200000032000ae7d02004e
:10d6e0000000000090018100800040004002220004
:10d6f0000080400010007800507f02000000000011
:10d70000a0c080000000e000cdff32000000eb0070
:10d71000a0c088007101200000032000ae7d02003f
:10d7200000000000900181008000400040022200c3
:10d7300000804000100078008c7e02000000000095
:10d740007102200000032000ae7d020000000000f6
:10d75000a001810080004000800222000080400083
:10d7600010007800507f02000000000030003700f9
:10d7700040c080000000e000150032000000eb0017
:10d7800040c08800a00181000000e800a0018900dd
:10d79000a0018100e20f5000020034000000eb0005
:10d7a000a00189007102200000032000ae7d02006c
:10d7b00000000000a00181008000400080022200e3
:10d7c0000080400010007800507f02000000000040
:10d7d00070c080000000e000150032000000eb0087
:10d7e00070c08800a00181000000e900a00189004c
:10d7f000a00181000000e00002003d0020002000a8
:10d80000a00189007102200000032000ae7d02000b
:10d8100000000000a0018100800040008002220082
:10d820000080400010007800507f020000000000df
:10d83000a0c080000000e000cdff32000000eb003f
:10d84000a0c088007102200000032000ae7d02000d
:10d8500000000000a0018100800040008002220042
:10d8600000804000100078008c7e02000000000064
:10d870007103200000032000ae7d020000000000c4
:10d88000b001810080004000e002220000804000e2
:10d8900010007800507f02000000000030003700c8
:10d8a00040c080000000e000150032000000eb00e6
:10d8b00040c08800b00181000000e800b00189008c
:10d8c000b0018100e10f5000020034000000eb00c5
:10d8d000b00189007103200000032000ae7d02002a
:10d8e00000000000b001810080004000e002220042
:10d8f0000080400010007800507f0200000000000f
:10d9000070c080000000e000150032000000eb0055
:10d9100070c08800b00181000000e900b0018900fa
:10d92000b00181000000e00002003d001000200076
:10d93000b00189007103200000032000ae7d0200c9
:10d9400000000000b001810080004000e0022200e1
:10d950000080400010007800507f020000000000ae
:10d96000a0c080000000e000cdff32000000eb000e
:10d97000a0c088007103200000032000ae7d0200db
:10d9800000000000b001810080004000e0022200a1
:10d9900000804000100078008c7e02000000000033
:10d9a000d900370064004700fd000700f1022000a5
:10d9b00000032000ae7d020000000000640047006c
:10d9c000507f0200000000003300370040c080009c
:10d9d0000000e000150032000000eb0040c08800ad
:10d9e000c00181000000e800c0018900c001810081
:10d9f000ff0f500002003400f0012000c001890038
:10da000064004700e6000700f10220000003200048
:10da1000ae7d02000000000064004700507f02005d
:10da200000000000c00181003b01070070c08000c1
:10da30000000e000150032000000eb0070c088001c
:10da4000c00181000000e900c0018900c00181001f
:10da50000000e00002003d000000eb00c001890072
:10da600064004700ce000700f10220000003200000
:10da7000ae7d02000000000064004700507f0200fd
:10da800000000000c00181002301070061002000a8
:10da90002000200030010700a0c080000000e0004e
:10daa000caff32000000eb00a0c0880064004700fd
:10dab000bb000700f102200000032000ae7d020041
:10dac00000000000640047008c7e0200000000009f
:10dad00064004700f0000700f1032000000320006d
:10dae000ae7d02000000000064004700507f02008d
:10daf000000000003700370040c080000000e00058
:10db000017003200d101810040c080000080400039
:10db1000d00189000000eb0040c08800d1018100e5
:10db2000f0072000808f500002003400f007200032
:10db3000d001890064004700d7000700f1032000ee
:10db400000032000ae7d02000000000064004700da
:10db5000507f020000000000d0018100f6000700a5
:10db600070c080000000e00017003200d101810089
:10db700070c0800000805000d00189000000eb00e0
:10db800070c08800d1018100f0022000808f500019
:10db900002003c0000032000d0018900640047001f
:10dba000bd000700f103200000032000ae7d02004d
:10dbb0000000000064004700507f020000000000e9
:10dbc000d0018100dc00070061002000200020005f
:10dbd000e1000700a0c080000000e000c6ff3200a6
:10dbe0000000eb00a0c0880064004700aa00070006
:10dbf000f103200000032000ae7d020000000000c1
:10dc0000640047008c7e0200000000003e003700e8
:10dc1000710120000000eb00ae7d0200000000005a
:10dc2000502b2d00507f020000000000070037003d
:10dc300040c080000000e000040032000000eb0063
:10dc400040c088001000200010079800a0c080008d
:10dc50000000e00003003a001e0090000000e00019
:10dc6000f3ff32000000eb00a0c08800710120002b
:10dc70000000eb00ae7d020000000000502b2d00e4
:10dc80008c7e020000000000710220000000eb000a
:10dc9000ae7d020000000000c02b2d00507f02006e
:10dca000000000000700370040c080000000e000d6
:10dcb000040032000000eb0040c08800200020007b
:10dcc00010079800a0c080000000e00003003a00a8
:10dcd0001e0090000000e000f3ff32000000eb00a7
:10dce000a0c08800710220000000eb00ae7d0200a1
:10dcf00000000000c02b2d008c7e02000000000000
:10dd000001003700000000000040eb00004f7800e9
:10dd10001d0037001e80fb00e27c020000000000b6
:10dd2000d0052000ac7c020000000000d0c5b3008c
:10dd3000104798000f0037009e80fb001e409000a7
:10dd40000080fb00d005b100e909b900820078002d
:10dd50000080400031172d00008040001040780006
:10dd6000027d0200000000001e4090000040e8001c
:10dd7000104798009e40900050c6b30080cf5000de
:10dd8000edff36001e4fe8001e407800e74f5000c0
:10dd9000e0ff36001e0090000080fa000000060040
:10dda0000600fa0020079800c0018100e300b900d6
:10ddb0005004b100100798001e0090000000e00021
:10ddc0000b0035001e0090000080d100801f7800fd
:10ddd000602f2d00801f78002e0090005209020055
:10dde00000000000e4875700000f78000b003700a8
:10ddf0001e0090000000e8000080d100801f780025
:10de0000602f2d00801f78002e0090005209020024
:10de100000000000e4875700000f78001e00780023
:10de2000ae00900000804000e1c2b30001487800dd
:10de30001e00900061006000004078000004e000d7
:10de4000070032001e0078000000e800ae009000dd
:10de50000080400051c3b30001487800060037003d
:10de60001e0078000000e800ae0090000080400036
:10de700001c3b300014878001e0078000080e8006c
:10de8000ae009000008040008040eb000148780028
:10de90000080fa00000006000600fa002007980043
:10dea000d001810071f82f00010f40009e1f780003
:10deb000602f2d00801f78002e0090005209020074
:10dec00000000000e4875700100798001e00900033
:10ded000ae00900000804000e1c2b300014878002d
:10dee0001e0090000000e800ae009000008040009e
:10def00001c3b300014878001e0090000080e800d4
:10df0000ae009000008040008040eb0001487800a7
:10df10000080fa00000006000200fa00000f7800fe
:10df20001e007800004078009417020000000000f6
:10df30000080fa00000006000200fa00000f7800de
:10df40001e00780000407800be17020000000000ac
:10df50000080fa00000006000a00fa00300798006e
:10df600041079800408080004980de00000f780063
:10df7000f00320009e007800808f500002003400e3
:10df8000f0032000000f7800508080004980de0000
:10df9000100798009e009000f0032000808f500032
:10dfa00002003400f0032000100798003e009000ab
:10dfb000e27c0200000000004e009000ac7c0200f9
:10dfc0000000000000c0eb00027d02000000000025
:10dfd00010c8b300027d0200000000000000eb004a
:10dfe000200798000d0037002e0090009e0f500073
:10dff00004003d00d0cbb300027d02000000000011
:10e000000300370010c8b300027d020000000000ca
:10e010002e0090000000e80020079800ae0090005d
:10e02000f0032000808f5000efff340000c0eb00b1
:10e03000027d02000000000071012000e0042000c9
:10e04000ae7d020000000000e08080000000e000e3
:10e0500004003200b02f2d00507f020000000000ad
:10e0600003003700e02f2d008c7e0200000000002e
:10e070003e0090000000e800e27c0200000000008a
:10e080004e009000ac7c02000000000000c0eb00dd
:10e09000027d02000000000010c8b300027d0200f3
:10e0a000000000000000eb00200798000e00370081
:10e0b000ae0090001e009000808f500004003d00d4
:10e0c000d0cbb300027d0200000000000300370047
:10e0d00010c8b300027d0200000000002e00900076
:10e0e0000000e80020079800ae009000f003200038
:10e0f000808f5000eeff340000c0eb00027d020074
:10e1000000000000f1012000e0042000ae7d0200cc
:10e1100000000000d08080000000e0000400320019
:10e12000b02f2d00507f02000000000003003700d8
:10e13000e02f2d008c7e0200000000000080fa001d
:10e14000000006000200fa00100280004500de0018
:10e15000674060000080fb00000f78001102800023
:10e16000000e200001007000100288000000000076
:10e17000c08e0200000000001e0078000040780001
:10e18000674060000080fb00670060004500dd0024
:10e1900012028000f1f12f00810061000100700087
:10e1a00010028800000000000080fa000000060055
:10e1b0000c00fa00004f9800114f9800224f980071
:10e1c000a0028000100798000280210003102000a8
:10e1d0000e4890008080fb00000025008088b90078
:10e1e0008000eb0002014000838148001e4890003f
:10e1f0000080fb004b00dd008000eb0002004000cf
:10e20000838048004008de0000007800a0028800fb
:10e210000080210001102000800078001e4890003e
:10e220000081fb000e4890000080fb00ea00b9006e
:10e23000000041004b00dd000080400020079800f6
:10e240002e009000b88e0200000000006047980089
:10e250002e4890000080fb00f30f50000a003200af
:10e26000f40f50000e003200f20f500012003a007e
:10e270006e4090000080fb00640060004280de0081
:10e28000004f78000f0037006e4090000080fb00c8
:10e29000680060004380de00004f7800090037000e
:10e2a0006e4090000080fb00700060004480de0043
:10e2b000004f7800030037000040eb00004f78006b
:10e2c000000000001e009000a00288001e80fb00dd
:10e2d0000080fa00000006000600fa00404798009f
:10e2e00051479800a0028000000f78003000240001
:10e2f0004039880000802100011020008000780053
:10e300005e4090000081fb004e4090000080fb00ca
:10e31000ea00b900000041004b00dd000080400031
:10e320001007980002802100031020004e4090004a
:10e330008080fb00000025008088b9008000eb0091
:10e3400002014000838148005e4090000080fb0095
:10e350004b00dd008000eb0002004000838048009d
:10e360004008de0000007800603988009e009000c0
:10e370005139880073ff07001e007800a002880052
:10e380000080fa00000006000c00fa00204f980000
:10e390000000eb00000f7800a0028000300798001a
:10e3a0000000eb0010079800030037001e009000eb
:10e3b0000000e800100798001e009000e90f5000d0
:10e3c00008003c001e0090000040780032c1b300fd
:10e3d000804078002e48900075ff0700e10f500044
:10e3e000f2ff320002802100031020002e4890002e
:10e3f0008080fb00000025008088b9008000eb00d1
:10e4000002014000838148001e0090004b00dd00a7
:10e410008000eb0002004000838048004008de00de
:10e4200000007800a0028800008021000110200078
:10e43000800078002e4890000080fb00ea01b900bf
:10e440001e009000000041004b00dd0000804000f5
:10e45000200798009e007800648f40002e009000f6
:10e4600064004000200798002e009000b88e020043
:10e4700000000000004f9800f07f20009e00780010
:10e48000808f500003003c000e489000e14f400098
:10e49000f0ff3a00008020009e007800808f50003e
:10e4a00002003a000000eb00000f78003e009000f0
:10e4b000a00288001e0078000080fa00000006001c
:10e4c0001200fa00881f780000579800a002800010
:10e4d000500798000000eb00000f780001003700a3
:10e4e0001e0fe8001e007800e90f500008003c00f5
:10e4f0001e0078000040780032c1b30080407800f0
:10e500000e5090002aff0700e10f5000f4ff320088
:10e510001e007800ea0f500005003a005e009000ef
:10e52000a00288004270a800300020003d013700a2
:10e530001e00e800100798001e009000ea0f50002f
:10e5400013003a000000eb0010079800110037009c
:10e550001e0090000000e800100798001e009000c8
:10e56000ea0f500002003a000000eb00100798008c
:10e570001e0090009e0f500006003a005e009000c2
:10e58000a00288004230a8001000200025013700ba
:10e59000000000001e0090000040780042c1b3005f
:10e5a000804078000e50900001ff07000000e0005e
:10e5b000e7ff320002802100031020000e5090007f
:10e5c0008080fb00000025008088b9008000eb00ff
:10e5d00002014000838148001e0090004b00dd00d6
:10e5e0008000eb0002004000838048004008de000d
:10e5f00000007800a00288000080210001102000a7
:10e60000800078000e5090000080fb00ea01b90005
:10e610001e009000000041004b00dd000080400023
:10e62000200798000e50900057ff07000000e00000
:10e63000010032004250a8002104210091407800de
:10e64000414f98004210a900100024004039880072
:10e65000ae0090000080eb000e8f02000000000072
:10e66000ae009000f00f2000da8e020000000000e3
:10e670002e00900064004000200798000040eb004e
:10e68000604798000e5090000080fb00c600dd003f
:10e690006e4090000080fb00008040009901070060
:10e6a0004007980010828000610060000000e000d8
:10e6b000020032004210a9000c0037004e0090000a
:10e6c000ae0090000e8f0200000000006e4090002f
:10e6d0000080fb00ae009000da8e02000000000017
:10e6e0002e009000640040002007980095fe07006f
:10e6f0006e4090000040e80060479800ee409000b7
:10e7000000c4b30080cf5000deff3a00ce48900036
:10e71000220421000149780002802100031020001a
:10e720000e5090008080fb00000025008088b9001a
:10e730008000eb0002014000838148001e00900031
:10e740004b00dd008000eb000200400083804800a9
:10e750004008de0000007800a00288000080210050
:10e7600001102000800078000e5090000080fb0017
:10e77000ea01b9001e009000000041004b00dd00de
:10e780000080400064004000200798002e009000a8
:10e79000ae0090008100e80021079800b88e0200ca
:10e7a00000000000604798002e009000ae0090002e
:10e7b0008100e80021079800bc8e020000000000e4
:10e7c000400798001d0037000e5090000080fb00ad
:10e7d000c600dd006e4090000080fb00008040001d
:10e7e00048010700ce009000810f50000500320064
:10e7f0005e009000a002880042f0a8007000200097
:10e80000880037002e009000ae0090008100e800e4
:10e8100021079800b88e02000000000060479800b1
:10e820002e009000ae0090008100e80021079800c3
:10e83000bc8e020000000000400798006e4090006f
:10e84000e14f4000e0ff3a0000802100011020006d
:10e85000800078000e5090000080fb00ea01b900b3
:10e860001e007800000041004b00dd0000804000e9
:10e8700070079800008021000110200080007800bf
:10e880000e5090000080fb00ea01b9001e009000cd
:10e89000000041004b00dd00008040002007980090
:10e8a00002802100031020000e5090008080fb00a9
:10e8b000000025008088b9008000eb0002014000c4
:10e8c000838148001e0078004b00dd008000eb00d3
:10e8d00002004000838048004008de00000078000d
:10e8e000a00288007e009000bc8e020000000000a4
:10e8f000400798007e009000b88e020000000000e3
:10e90000604798001e0090000000e00003003a00fd
:10e910004e0090000000e800400798004e00900074
:10e92000e30f5000040036004230a8006e40900013
:10e930000044a100604798000280210003102000dd
:10e940000e5090008080fb00000025008088b900f8
:10e950008000eb0002014000838148001e0090000f
:10e960004b00dd008000eb00020040008380480087
:10e970004008de0000007800a0028800100024009b
:10e98000403988006e4090000080fb00ae0090008f
:10e99000da8e0200000000004e009000ae009000f1
:10e9a0000e8f020000000000e6fd07006e409000a0
:10e9b0000084fb002e009000b88e020000000000d2
:10e9c000800f540007003a002e009000bc8e020019
:10e9d00000000000800078004e009000808f500002
:10e9e000050032005e009000a002880042f0a800fe
:10e9f000700020000b0037001e00780000407800f7
:10ea0000804078000e50900033fe07005e009000ba
:10ea1000a0028800108280000000d10061406000e8
:10ea20000080fb004f0478000080fa000000060020
:10ea30000c00fa00a102800031079800008021003c
:10ea4000011020004008de0000007800a0028800cd
:10ea50000040eb0040479800a40037000040eb0066
:10ea6000004f78000040eb00104798000000eb00da
:10ea7000400798000000eb001007980003003700e3
:10ea80001e0090000000e800100798001e00900093
:10ea9000e90f500008003e001e0090000040780082
:10eaa00042c1b300804078004e409000c0fd070096
:10eab0000000e000f2ff32001e009000ea0f50005c
:10eac00005003a00be009000a10288004230a80074
:10ead00010c0b300890037000000eb001007980059
:10eae0000c0037001e0090000040780032c1b300d7
:10eaf000804078004e409000adfd07000000e0002f
:10eb000001003a001e4fe8001e0090000000e800df
:10eb1000100798001e009000e90f5000f1ff36002a
:10eb20001e4078000004e00028003a008040eb001e
:10eb30004e409000e8fd07000280210003102000f5
:10eb40004e4090008080fb00000025008088b900c6
:10eb50008000eb0002004000838048004008de0097
:10eb600000007800a0028800008021000110200031
:10eb7000800078004e4090000081fb0000002500de
:10eb80008090b900008040005007980010002400d9
:10eb9000403988005e009000800078000000eb00a3
:10eba0000e8f0200000000005e00900080007800e0
:10ebb000300f2000da8e02000000000061fd070027
:10ebc000be009000a1028800450037001e4078007a
:10ebd000e14f500003003a00be009000a1028800ff
:10ebe0003f0037001e407800e24f500037003a00e7
:10ebf00032c1b30091c0b3004e4090006cfd0700dd
:10ec00000000e0000b003a0032c1b3008040eb008e
:10ec10004e40900066fd07000000e00005003a004d
:10ec200090002000100798000040eb00104798006b
:10ec30001a0037000000eb001007980003003700af
:10ec40001e0090000000e800100798001e009000d1
:10ec50000040780032c1b300804078004e40900000
:10ec600053fd0700e10f500003003a001e00900022
:10ec7000e90f5000f2ff36001e00900000407800bf
:10ec80000040e800104798001e409000ea4f5000f6
:10ec900002003a000040eb00104798009e409000b0
:10eca0004e4090008cfd07004e409000b6fd0700de
:10ecb0000000e00002003a004e40900000fe070015
:10ecc000be009000a102880005003700be00900041
:10ecd000a102880042d0a80060c0b300070037003e
:10ece0004e4090000040e800404798004e409000a1
:10ecf0000004e00059ff32000040eb000080fa0001
:10ed0000000006000e00fa0060079800ee00900078
:10ed1000f0032000808f50000300360042b0a800ae
:10ed20000080eb00600037006e0090004600de00bf
:10ed300060479800a1028000410798000000eb00a6
:10ed4000000f7800010037001e0fe8001e00780059
:10ed5000e90f500008003e001e00780000407800d7
:10ed600032c1b300804078006e40900010fd070073
:10ed7000e10f5000f4ff32001e007800ea0f50004f
:10ed800005003a00ce009000a102880042d0a80001
:10ed90000080eb00440037000280210003102000b7
:10eda0006e4090008080fb00000025008088b90044
:10edb0008000eb0002014000838148001e007800c3
:10edc0004b00dd008000eb00020040008380480023
:10edd0004008de0000007800a002880000802100ca
:10ede00001102000800078006e4090000080fb0041
:10edf000ea00b9001e0040000000e8004b00dd0002
:10ee0000008040006400500010079800004020007f
:10ee1000200798001e009000b88e0200000000003d
:10ee2000500798001e0090006400500010079800e2
:10ee30002e0090000080e900200798002e0090002e
:10ee40000000e00006003200ee009000f003200019
:10ee5000808060005e009000808f5000edff3a00df
:10ee60002e0090000000e00005003a004210a800cb
:10ee7000ce009000a10288000080eb000a0037005d
:10ee80001e00900064004000100798001e009000d3
:10ee9000bc8e02000000000050079800ce009000d9
:10eea000a10288005e0090000080fa0000000600c9
:10eeb0001200fa0070079800010f98008e08900069
:10eec000f0032000808f50000300360042b0a800fd
:10eed00050c0b300ab0037000e0890004600de00c3
:10eee00010079800a002800020079800100024005e
:10eef000403988000000eb00000f78000100370067
:10ef00001e0fe8001e007800e90f500008003c00ca
:10ef10001e007800804078001e00900000407800bd
:10ef200032c1b300a2fc0700e10f5000f4ff320031
:10ef30001e007800ea0f500005003a002e009000f5
:10ef4000a002880042d0a80060c0b3008d00370046
:10ef500002802100031020009e0090000000250088
:10ef60008088b9008000eb000201400083814800e6
:10ef70001e0078004b00dd008000eb000200400026
:10ef8000838048004008de0000007800a00288006e
:10ef90000080210001102000800078001e009000f9
:10efa000ea01b9001e007800000041004b00dd00be
:10efb0000080400030079800210421009140780033
:10efc000014f98000e0890004eff0700fe009000d1
:10efd000810f50000b003a00108280006100600039
:10efe0000000e00007003a002e009000a002880018
:10eff0008e48900022042100014978000040eb0077
:10f00000600037008e4890002204210001497800fa
:10f010001e00900000407800dbfc070050079800bd
:10f020005e0090000000e00005003a002e00900015
:10f03000a00288004290a80040c0b30051003700f1
:10f04000be0090005e0090000080400030079800f5
:10f050007e009000be0090000e8f020000000000b5
:10f060008e089000f003200000806000be00900039
:10f07000da8e02000000000032fc070000000000f1
:10f08000000000003e009000bc8e02000000000066
:10f0900000407800404f98004e4890008080fb0070
:10f0a0007e019000f00f200000006100808f500072
:10f0b000050032002e009000a002880042f0a80057
:10f0c00070c0b3002f0037003e009000b88e0200e1
:10f0d0000000000000407800404f98004e4890002b
:10f0e0008080fb000e099000f0032000000061000a
:10f0f000808f5000050032002e009000a002880092
:10f1000042f0a80070c0b3001e0037003e0090001f
:10f110000000e800300798003e009000bc8e02001e
:10f12000000000004800de0000407800404f9800da
:10f130004e4890008080fb007e0090004800de007a
:10f14000808f5000050032002e009000a002880041
:10f1500042f0a80070c0b3000a003700de00900043
:10f16000c07f2000808f500003003a001e009000f6
:10f1700000407800d2fc07002e009000a00288001a
:0cf180000040eb000080fa0000000600d8
:020000040000fa
:10f18c000000fa000000eb005a170200000000001b
:10f19c000080fa00000006000000fa0030808000b9
:10f1ac000000e0000400320036870200000000007e
:10f1bc004283020000000000908180000000e0000b
:10f1cc000e003a0034d0bf000004e0000b00320007
:10f1dc004070210028130200000000000a150200f4
:10f1ec00000000008000eb0060002000ba840200e8
:10f1fc00000000001000200090818800f103200026
:10f20c000000eb00ae7d020000000000d08080000a
:10f21c000000e00003003a00e08080000000e00005
:10f22c000400320080612d00507f020000000000bd
:10f23c000300370030622d008c7e020000000000bd
:10f24c000080fa00000006001000fa004007980049
:10f25c005107980062079800730798000000eb00b4
:10f26c00100798000000eb002007980049003700b9
:10f27c002e0090008000eb000000400081804800d0
:10f28c00808fd2008180d2000000780000f0a100b5
:10f29c00de0190004e0190000202d0008002d000ee
:10f2ac00050042004220a800818049004200a900cc
:10f2bc004220ae004200a8000080d30092018000e2
:10f2cc0081017800930188000000000000007800a4
:10f2dc009000780092018800000000001e00900051
:10f2ec00000140000083210000004100010878006b
:10f2fc002e0090000000e800200798002e009000df
:10f30c008000eb000000400081804800808fd2001c
:10f31c008180d2000000780000f0a100de01900096
:10f32c004e0190000202d0008002d0000500420085
:10f33c004220a800818049004200a9004220ae0072
:10f34c004200a8000080d300920180008101780067
:10f35c009301880000000000000078009000780005
:10f36c0092018800000000001e0090000001400087
:10f37c000093210000004100010878002e0090004d
:10f38c000000e800200798001e0090000000e80034
:10f39c00100798009e009000f0072000808f50000e
:10f3ac00b3ff3600908180000000e0000f003200b7
:10f3bc00900181000000e00006003a000283210069
:10f3cc004170210000082000de0502000000000052
:10f3dc000500370002932100417021000008200035
:10f3ec00de050200000000003230ef00660047002e
:10f3fc00000178000183210000082000f0050200c4
:10f40c000000000040808800660047000001780082
:10f41c000193210000082000f0050200000000000c
:10f42c00508088004180800050212700808f500040
:10f43c000400340010002000e08088008038210097
:10f44c00f08088005180800050212700808f500070
:10f45c000400340010002000d08088008038210087
:10f46c00f0808800808180000000e0002a003200db
:10f47c00208080000000e0000c003a00036b2100ab
:10f48c000283210001832100000820004a040200ad
:10f49c0000000000e36b2100029321000193210086
:10f4ac00000820004a0402000000000020808000b8
:10f4bc00e10f500018003a00036b21000283210079
:10f4cc0001832100000820004a0402000000000013
:10f4dc00e36b21000293210001932100000820001e
:10f4ec004a04020000000000c36c210002832100ca
:10f4fc0001832100000820004a04020000000000e3
:10f50c00a36d21000293210001932100000820002b
:10f51c004a04020000000000108080000000e0009f
:10f52c006c0032000000eb00000f78000c0037007c
:10f53c00418180001e007800000040008080400067
:10f54c0052818000030420001e8041000000400016
:10f55c000000410010007800800878001e0fe800c1
:10f56c00f00320009e007800808f5000f0ff3600e2
:10f57c000000eb00000f78000b0037005181800079
:10f58c001e00780000004000808040001e007800c3
:10f59c0000014000009321000000410010007800a1
:10f5ac00800878001e0fe800f00720009e0078000d
:10f5bc00808f5000f1ff3600518180004081800027
:10f5cc006566200001027800836e2100000178003e
:10f5dc0001932100000820004405020000000000f7
:10f5ec00508180008001780002932100019321005a
:10f5fc000008200032060200000000000000eb00b2
:10f60c00000f78000c003700618180001e0078002c
:10f61c0000004000808040007281800004042000c3
:10f62c001e00420000004000000041001000780065
:10f63c00800878001e0fe800f00320009e00780080
:10f64c00808f5000f0ff36000000eb00000f7800b8
:10f65c000b003700718180001e0078000000400014
:10f66c00808040001e0078000001400000832100d3
:10f67c000000410010007800800878001e0fe800a0
:10f68c00f00720009e007800808f5000f1ff3600bc
:10f69c007181800060818000656620000102780025
:10f6ac00636f210000017800018321000008200015
:10f6bc004405020000000000708180008001780089
:10f6cc000283210001832100000820003206020081
:10f6dc00000000000283210001a32100000820008b
